:020000040800F2
:1000000000000220593D0008B1110008B31100089A
:10001000B5110008B7110008B91100080000000070
:10002000000000000000000000000000BB110008FC
:10003000BD11000800000000BF110008C111000838
:10004000A93D0008A93D0008A93D0008A93D0008F8
:10005000A93D0008A93D0008A93D0008A93D0008E8
:10006000A93D0008A93D0008A93D0008A93D0008D8
:10007000C9110008A93D0008A93D0008A93D0008D4
:10008000A93D0008A93D0008A93D0008A93D0008B8
:10009000D9110008E9110008A93D0008A93D000890
:1000A000A93D0008A93D0008A93D0008A93D000898
:1000B000A93D0008A93D0008A93D0008A93D000888
:1000C000A93D0008A93D0008A93D0008A93D000878
:1000D000A93D0008F9110008A93D00089929000868
:1000E000A93D0008A93D0008A93D0008A93D000858
:1000F000A93D0008A93D0008A93D0008A93D000848
:10010000A93D0008A93D0008A93D0008A93D000837
:10011000A93D0008A93D0008A93D0008A93D000827
:10012000A93D0008A93D0008A93D0008A93D000817
:10013000A93D0008A93D0008A93D0008A93D000807
:10014000A93D0008A93D0008A93D0008A93D0008F7
:10015000A93D0008A93D0008A93D0008A93D0008E7
:10016000A93D0008A93D0008A93D0008A93D0008D7
:10017000A93D0008A93D0008A93D000800000000B5
:08018000A93D0008A93D00089B
:1001900010B5054C237833B9044B13B10448AFF3C1
:1001A00000800123237010BD7400002000000000B7
:1001B000FC46000808B5034B1BB103490348AFF3E5
:1001C000008008BD0000000078000020FC46000808
:1001D000034613F8012B002AFBD1181A0138704787
:1001E00001F0FF01102A2BDB10F0070F08D010F8E8
:1001F000013B013A8B422DD010F0070F42B3F6D1EC
:10020000F0B441EA012141EA014122F007047FF004
:1002100000070023F0E80256083C85EA010586EA5B
:10022000010685FA47F5A3FA87F586FA47F6A5FA97
:1002300087F68EB9EED1F0BC01F0FF0102F00702A3
:1002400032B110F8013B013A83EA010313B1F8D14E
:100250000020704701387047002D06BF354603382F
:10026000073815F0010F07D1013015F4807F02BF68
:10027000013015F4C03F0130F0BC0138704700BFB9
:1002800081F0004102E000BF83F0004330B54FEA47
:1002900041044FEA430594EA050F08BF90EA020FB4
:1002A0001FBF54EA000C55EA020C7FEA645C7FEA47
:1002B000655C00F0E2804FEA5454D4EB5555B8BF6A
:1002C0006D420CDD2C4480EA020281EA030382EADB
:1002D000000083EA010180EA020281EA0303362D6D
:1002E00088BF30BD11F0004F4FEA01314FF4801C40
:1002F0004CEA113102D0404261EB410113F0004F52
:100300004FEA03334CEA133302D0524263EB430308
:1003100094EA050F00F0A780A4F10104D5F1200EA6
:100320000DDB02FA0EFC22FA05F2801841F1000101
:1003300003FA0EF2801843FA05F359410EE0A5F1D5
:1003400020050EF1200E012A03FA0EFC28BF4CF006
:10035000020C43FA05F3C01851EBE37101F00045BC
:1003600007D54FF0000EDCF1000C7EEB00006EEBC9
:100370000101B1F5801F1BD3B1F5001F0CD3490853
:100380005FEA30004FEA3C0C04F101044FEA4452AA
:1003900012F5800F80F09A80BCF1004F08BF5FEA31
:1003A000500C50F1000041EB045141EA050130BD11
:1003B0005FEA4C0C404141EB0101013C28BFB1F523
:1003C000801FE9D291F0000F04BF01460020B1FA6E
:1003D00081F308BF2033A3F10B03B3F120020CDA41
:1003E0000C3208DD02F1140CC2F10C0201FA0CF01F
:1003F00021FA02F10CE002F11402D8BFC2F1200C84
:1004000001FA02F120FA0CFCDCBF41EA0C01904039
:10041000E41AA2BF01EB0451294330BD6FEA040482
:100420001F3C1CDA0C340EDC04F11404C4F120026D
:1004300020FA04F001FA02F340EA030021FA04F37F
:1004400045EA030130BDC4F10C04C4F1200220FAD6
:1004500002F001FA04F340EA0300294630BD21FA14
:1004600004F0294630BD94F0000F83F4801306BFDA
:1004700081F480110134013D4EE77FEA645C18BFCE
:100480007FEA655C29D094EA050F08BF90EA020F65
:1004900005D054EA000C04BF1946104630BD91EA5D
:1004A000030F1EBF0021002030BD5FEA545C05D160
:1004B0004000494128BF41F0004130BD14F580049F
:1004C0003CBF01F5801130BD01F0004545F0FE4113
:1004D00041F470014FF0000030BD7FEA645C1ABF48
:1004E000194610467FEA655C1CBF0B46024650EA7F
:1004F000013406BF52EA033591EA030F41F40021AB
:1005000030BD00BF90F0000F04BF0021704730B530
:100510004FF4806404F132044FF000054FF0000105
:1005200050E700BF90F0000F04BF0021704730B5C6
:100530004FF4806404F1320410F0004548BF40429B
:100540004FF000013EE700BF42004FEAE2014FEAF0
:1005500031014FEA02701FBF12F07F4393F07F4FCB
:1005600081F06051704732F07F4208BF704793F0CE
:100570007F4F04BF41F40021704730B54FF46074E1
:1005800001F0004521F000411CE700BF50EA0102E4
:1005900008BF704730B54FF000050AE050EA01028D
:1005A00008BF704730B511F0004502D5404261EBFD
:1005B00041014FF4806404F132045FEA915C3FF43E
:1005C000D8AE4FF003025FEADC0C18BF03325FEADB
:1005D000DC0C18BF033202EBDC02C2F1200300FA8C
:1005E00003FC20FA02F001FA03FE40EA0E0021FAB1
:1005F00002F11444BDE600BF70B54FF0FF0C4CF49F
:10060000E06C1CEA11541DBF1CEA135594EA0C0F50
:1006100095EA0C0F00F0DEF82C4481EA030621EA8B
:100620004C5123EA4C5350EA013518BF52EA0335C6
:1006300041F4801143F4801338D0A0FB02CE4FF078
:100640000005E1FB02E506F00042E0FB03E54FF0A8
:100650000006E1FB03569CF0000F18BF4EF0010EA0
:10066000A4F1FF04B6F5007F64F5407404D25FEA9C
:100670004E0E6D4146EB060642EAC62141EA55514F
:100680004FEAC52040EA5E504FEACE2EB4F1FD0C91
:1006900088BFBCF5E06F1ED8BEF1004F08BF5FEA0F
:1006A000500E50F1000041EB045170BD06F00046C1
:1006B00046EA010140EA020081EA0301B4EB5C046E
:1006C000C2BFD4EB0C0541EA045170BD41F4801166
:1006D0004FF0000E013C00F3AB8014F1360FDEBF8B
:1006E000002001F0004170BDC4F10004203C35DA67
:1006F0000C341BDC04F11404C4F1200500FA05F3EA
:1007000020FA04F001FA05F240EA020001F000428A
:1007100021F0004110EBD37021FA04F642EB060100
:100720005EEA430E08BF20EAD37070BDC4F10C042A
:10073000C4F1200500FA04F320FA05F001FA04F2EE
:1007400040EA020001F0004110EBD37041F10001DA
:100750005EEA430E08BF20EAD37070BDC4F12005E5
:1007600000FA05F24EEA020E20FA04F301FA05F24D
:1007700043EA020321FA04F001F0004121FA04F2F5
:1007800020EA020000EBD3705EEA430E08BF20EAC5
:10079000D37070BD94F0000F0FD101F000464000FF
:1007A00041EB010111F4801F08BF013CF7D041EA81
:1007B000060195F0000F18BF704703F00046520085
:1007C00043EB030313F4801F08BF013DF7D043EA56
:1007D0000603704794EA0C0F0CEA135518BF95EA0C
:1007E0000C0F0CD050EA410618BF52EA4306D1D193
:1007F00081EA030101F000414FF0000070BD50EAB2
:10080000410606BF1046194652EA430619D094EA3B
:100810000C0F02D150EA013613D195EA0C0F05D125
:1008200052EA03361CBF104619460AD181EA030179
:1008300001F0004141F0FE4141F470014FF0000031
:1008400070BD41F0FE4141F4780170BD70B54FF0CC
:10085000FF0C4CF4E06C1CEA11541DBF1CEA13554C
:1008600094EA0C0F95EA0C0F00F0A7F8A4EB05042E
:1008700081EA030E52EA03354FEA013100F0888025
:100880004FEA03334FF0805545EA131343EA1263EE
:100890004FEA022245EA111545EA10654FEA0026A3
:1008A0000EF000419D4208BF964244F1FD0404F55C
:1008B000407402D25B084FEA3202B61A65EB0305B8
:1008C0005B084FEA32024FF480104FF4002CB6EB75
:1008D000020E75EB030E22BFB61A754640EA0C00F5
:1008E0005B084FEA3202B6EB020E75EB030E22BF35
:1008F000B61A754640EA5C005B084FEA3202B6EB76
:10090000020E75EB030E22BFB61A754640EA9C0034
:100910005B084FEA3202B6EB020E75EB030E22BF04
:10092000B61A754640EADC0055EA060E18D04FEAC2
:10093000051545EA16754FEA06164FEAC30343EA62
:1009400052734FEAC2025FEA1C1CC0D111F4801F2F
:100950000BD141EA00014FF000004FF0004CB6E728
:1009600011F4801F04BF01430020B4F1FD0C88BFC7
:10097000BCF5E06F3FF6AFAEB5EB030C04BFB6EBD2
:10098000020C5FEA500C50F1000041EB045170BDC5
:100990000EF0004E4EEA113114EB5C04C2BFD4EBF2
:1009A0000C0541EA045170BD41F480114FF0000E76
:1009B000013C90E645EA060E8DE60CEA135594EAF2
:1009C0000C0F08BF95EA0C0F3FF43BAF94EA0C0FF5
:1009D0000AD150EA01347FF434AF95EA0C0F7FF46A
:1009E00025AF104619462CE795EA0C0F06D152EABE
:1009F00003353FF4FDAE1046194622E750EA4106A2
:100A000018BF52EA43067FF4C5AE50EA41047FF4B2
:100A10000DAF52EA43057FF4EBAE12E74FEA410215
:100A2000B2F1E04324BFB3F5001CDCF1FE5C0DD94C
:100A300001F0004C4FEAC0024CEA5070B2F1004F96
:100A400040EB830008BF20F00100704711F0804F99
:100A500021D113F13872BCBF01F00040704741F45E
:100A600080114FEA5252C2F11802C2F1200C10FA62
:100A70000CF320FA02F018BF40F001004FEAC12346
:100A80004FEAD32303FA0CFC40EA0C0023FA02F3EA
:100A90004FEA4303CCE77FEA625307D150EA0133C0
:100AA0001EBF4FF0FE4040F44000704701F0004090
:100AB00040F0FE4040F40000704700BF53B94AB90F
:100AC000002908BF00281CBF4FF0FF314FF0FF3056
:100AD00000F074B9ADF1080C6DE904CE00F006F831
:100AE000DDF804E0DDE9022304B070472DE9F047AA
:100AF000089D04468E46002B4DD18A42944669D902
:100B0000B2FA82F252B101FA02F3C2F1200120FAE4
:100B100001F10CFA02FC41EA030E94404FEA1C4832
:100B2000210CBEFBF8F61FFA8CF708FB16E341EA2E
:100B3000034306FB07F199420AD91CEB030306F1B4
:100B4000FF3080F01F81994240F21C81023E6344D5
:100B50005B1AA4B2B3FBF8F008FB103344EA034479
:100B600000FB07F7A7420AD91CEB040400F1FF338E
:100B700080F00A81A74240F207816444023840EACB
:100B80000640E41B00261DB1D4400023C5E9004304
:100B90003146BDE8F0878B4209D9002D00F0EF8087
:100BA0000026C5E9000130463146BDE8F087B3FABA
:100BB00083F6002E4AD18B4202D3824200F2F980A2
:100BC000841A61EB030301209E46002DE0D0C5E9A5
:100BD000004EDDE702B9FFDEB2FA82F2002A40F0F1
:100BE0009280A1EB0C014FEA1C471FFA8CFE0126F4
:100BF000200CB1FBF7F307FB131140EA01410EFB98
:100C000003F0884208D91CEB010103F1FF3802D23E
:100C1000884200F2CB804346091AA4B2B1FBF7F038
:100C200007FB101144EA01440EFB00FEA64508D95B
:100C30001CEB040400F1FF3102D2A64500F2BB8098
:100C40000846A4EB0E0440EA03409CE7C6F12007E7
:100C5000B34022FA07FC4CEA030C20FA07F401FA2D
:100C600006F31C43F9404FEA1C4900FA06F3B1FBB6
:100C7000F9F8200C1FFA8CFE09FB181140EA01411B
:100C800008FB0EF0884202FA06F20BD91CEB0101B8
:100C900008F1FF3A80F08880884240F28580A8F110
:100CA00002086144091AA4B2B1FBF9F009FB101162
:100CB00044EA014100FB0EFE8E4508D91CEB010100
:100CC00000F1FF346CD28E456AD90238614440EAA3
:100CD0000840A0FB0294A1EB0E01A142C846A64623
:100CE00056D353D05DB1B3EB080261EB0E0101FAAC
:100CF00007F722FA06F3F1401F43C5E90071002609
:100D00003146BDE8F087C2F12003D8400CFA02FC5E
:100D100021FA03F3914001434FEA1C471FFA8CFE6E
:100D2000B3FBF7F007FB10360B0C43EA064300FB5E
:100D30000EF69E4204FA02F408D91CEB030300F1FC
:100D4000FF382FD29E422DD9023863449B1B89B2B3
:100D5000B3FBF7F607FB163341EA034106FB0EF33C
:100D60008B4208D91CEB010106F1FF3816D28B42E9
:100D700014D9023E6144C91A46EA004638E72E46B5
:100D8000284605E70646E3E61846F8E64B45A9D2AD
:100D9000B9EB020864EB0C0E0138A3E74646EAE71C
:100DA000204694E74046D1E7D0467BE7023B6144CA
:100DB00032E7304609E76444023842E7704700BF33
:100DC00072B6FEE700B595B03022002108A803F006
:100DD00011F800230393049305930693079301935B
:100DE000204A116C41F080511164126C02F0805263
:100DF0000192019A02931C4B1A6842F480421A60D5
:100E00001B6803F480430293029B012308934FF471
:100E10008033099302230E934FF480020F9206222F
:100E20001092A822119212930423139308A800F0A1
:100E30002FFD98B90F2303930223049300230593F6
:100E40004FF4A05306934FF480530793052103A852
:100E500000F06CFF20B915B05DF804FBFFF7B0FFA0
:100E6000FFF7AEFF003802400070004030B52DEDB6
:100E7000028B99B001F0D6FBFFF7A4FF00F0D4F885
:100E800002F008FC00F02EF902F01CF802F034F831
:100E900002F01AFC01F040FE01F0D0FF574D2A4647
:100EA0000021084601F08AFF01F0ACFF01F066FD69
:100EB0002A460121002001F081FF01F0A3FF504CE0
:100EC000204601F0AFFC2A460221002001F076FF07
:100ED00001F098FF012221460EA801F0FDFB02223D
:100EE000214604A801F0F8FB0EA801F06DFC04A84F
:100EF00001F06AFC01F0A2FF424A0121002001F04A
:100F000045FF414A0121084601F040FF3F4A0121C7
:100F1000022001F03BFF3E4A0121032001F036FF91
:100F200001F036FD05463B4C2060B0F90200FFF7AA
:100F3000F9FA0022384BFFF789FCFFF76FFD08EE46
:100F4000100AF1EE047A28EE278A0323B5F900206F
:100F50000621002001F084FF22680323B2F9022059
:100F60000621012001F07CFF22680323B2F904204E
:100F70000621022001F074FF22680323B2F9062043
:100F80000621184601F06CFF2368B3F90620234DB3
:100F900085FB0213D217C2EBE302032312B2062130
:100FA000042001F05DFF01F02DFF1D4BEC460FCB3F
:100FB000ACE807008CF800306846FFF709F982B208
:100FC0006946184802F075F9F7EE000AB0EE480AD3
:100FD0000EA801F017FC2368B3F9063085FB032542
:100FE000DB17C3EBE5031BB200EE103AF7EE000A85
:100FF000B8EEC00A04A801F005FC91E71447000808
:1010000094000020184700082047000828470008DF
:10101000304700089000002000A08440E1830F3E8C
:10102000384700082406002030B58DB0002407940E
:10103000089409940A940B940194284B1A6B42F07B
:1010400002021A631A6B02F002020192019A0294E0
:101050001A6B42F008021A631A6B02F0080202923D
:10106000029A03941A6B42F004021A631A6B02F09C
:1010700004020392039A04941A6B42F020021A634A
:101080001A6B02F020020492049A05941A6B42F043
:1010900001021A631A6B02F001020592059A069486
:1010A0001A6B42F080021A631B6B03F080030693F5
:1010B000069B0B4D22464FF4E051284600F0FEFF00
:1010C0004FF4E05307930123089309930A9407A967
:1010D000284600F001FF0DB030BD00BF00380240CF
:1010E000001C024008B50D480D4B0360032343600C
:1010F00000238360C3604FF4102202614FF400129A
:101100004261037643768376C3760377437700F0B4
:1011100097F800B908BDFFF753FEFBE794000020E5
:101120000064004010B588B0002303930493059336
:101130000693079302681C4B9A4201D008B010BD79
:101140000024019403F5EA331A6C42F000721A6429
:101150001A6C02F000720192019A02941A6B42F02A
:1011600008021A631B6B03F008030293029B03231C
:1011700003930222049206930923079303A90B48C1
:1011800000F0AAFE22462146142001F0CBF91420DB
:1011900001F000FA22462146152001F0C3F915207E
:1011A00001F0F8F9CAE700BF00640040000C0240FB
:1011B000FEE7FEE7FEE7FEE7FEE770477047704791
:1011C00008B501F049FA08BD08B5024801F0AAF8CF
:1011D00008BD00BFC405002008B5024800F033FA7E
:1011E00008BD00BF9400002008B5024800F02BFAAB
:1011F00008BD00BF9400002008B5024802F00AF9BB
:1012000008BD00BF2406002082B0002100910B4BD6
:101210005A6C42F480425A645A6C02F48042009242
:10122000009A01911A6C42F080521A641B6C03F010
:1012300080530193019B02B0704700BF0038024009
:10124000002800F0A18038B5044690F82030D3B1D2
:101250002268136843F00103136001F009FA0546A0
:1012600023685A6812F0010F10D101F001FA401BF7
:101270000A28F5D9636A43F400336362052384F8CE
:101280002030012038BDFFF74DFFE1E71A6822F05A
:1012900002021A6001F0ECF9054623685A6812F060
:1012A000020F0DD001F0E4F9401B0A28F5D9636A5A
:1012B00043F400336362052384F820300120E1E722
:1012C000227E012A3DD01A6822F080021A60637ED5
:1012D000012B3BD02268136823F040031360A37EE8
:1012E000012B39D02268136823F020031360E37EBA
:1012F000012B37D02268136843F010031360237F5B
:10130000012B35D02268136823F008031360637F34
:10131000012B33D02268136823F004031360A36801
:10132000E268134322691343626913436268013A16
:1013300021681343CB6100206062012384F82030D0
:10134000A0E71A6842F080021A60C0E722681368BA
:1013500043F040031360C2E72268136843F02003A0
:101360001360C4E72268136823F010031360C6E714
:101370002268136843F008031360C8E72268136803
:1013800043F004031360CAE70120704770B50446B8
:1013900090F82050EDB2012D06D0436A43F40023AB
:1013A00043620125284670BD022380F82030026880
:1013B000136823F00103136001F05AF9064623680D
:1013C0005B6813F0010F0CD001F052F9831B0A2B5C
:1013D000F5D9636A43F400336362052384F820304F
:1013E000E0E700256562DDE730B590F820C00468CD
:1013F000A4680CF1FF3C5FFA8CFCBCF1010F6BD8C8
:1014000014F0E05F62D0C4F3016CBCF1020F05D9A7
:10141000436A43F400034362012062E0012404FABA
:101420000CF41C608B68002B3DD10D68CB68046800
:1014300043EA45550CF118031B01E55003680C699C
:101440000CF1180E03EB0E135C600B7D012B35D0F5
:10145000D17993791B0443EA0163517943EA01236B
:1014600014790168234301EB0C11C1F88C31D17858
:1014700093781B0443EA0163517843EA012311780E
:1014800002680B4302EB0C12C2F8883102680CF1BF
:10149000180C4FEA0C1C52F80C3043F0010342F8D0
:1014A0000C3000201DE04C6843EAC403CC682343A1
:1014B0000CF11804240105682B51BFE7036803EB06
:1014C0000E13596841F480715960C1E7436A43F4CF
:1014D00000134362012004E0436A43F48023436223
:1014E000012030BD90F820C00CF1FF3C5FFA8CFC6D
:1014F000BCF1010F00F2958030B451B90468E46882
:1015000014F0030F10D1436A43F400134362012027
:1015100077E00468246914F0030F05D1436A43F4AB
:101520000013436201206CE001F11B0424010568F3
:101530002C5904F004049460002C64D101F11B04C4
:10154000240105682C59640D1460046801F11B0C1A
:101550004FEA0C1C54F80C4004F00204D4600468F8
:101560006444646804F00F041461046864446468AB
:10157000C4F307249461046864446468240C5461CF
:10158000026802EB0112D2F8B8211A70026802EB6D
:101590000112D2F8B821C2F307225A70026802EB96
:1015A0000112D2F8B821C2F307429A70026802EB26
:1015B0000112D2F8B821120EDA70026802EB0112A1
:1015C000D2F8BC211A71026802EB0112D2F8BC21D8
:1015D000C2F307225A71026802EB0112D2F8BC2151
:1015E000C2F307429A71026802EB0112D2F8BC21E1
:1015F000120EDA7179B90268D36843F02003D36020
:10160000002030BC704701F11B04240105682C59EF
:10161000E408546099E70268136943F020031361FA
:10162000EEE7436A43F4802343620120704770472A
:1016300070477047704770477047704770477047F2
:101640007047704770472DE9F84F054603685C699D
:10165000D3F804809F68D3F80CB0D3F810A0D3F867
:10166000189014F001063BD017F0010616D00122A5
:101670009A6017F0020F08D117F0040F0CD117F081
:10168000080606D04FF4805608E0FFF7D0FF00268A
:1016900004E0FFF7CFFF01E04FF4006617F4807F0E
:1016A0000DD02B684FF480729A6017F4007F40F0E1
:1016B000868017F4806F00F0868046F4005617F499
:1016C000803F0DD02B684FF480329A6017F4003FB2
:1016D00040F0838017F4802F00F0838046F40046AA
:1016E00014F0080F07D01BF0100F04D046F400765A
:1016F0002B681022DA6014F0040F02D01BF0080FE0
:1017000079D114F0020F04D02B68DB6813F0030FBB
:1017100078D114F0400F07D01AF0100F04D046F41F
:1017200080662B6810221A6114F0200F02D01AF084
:10173000080F6BD114F0100F04D02B681B6913F045
:10174000030F6AD114F4003F02D018F0100F68D1D3
:1017500014F4803F02D018F0080F69D114F4004F40
:101760007AD018F0040F74D014F4807F04D019F0EC
:10177000010F01D046F0010614F4007F04D019F0E7
:10178000020F01D046F0020614F4806F04D019F065
:10179000040F01D046F0040614F4006F59D019F07C
:1017A000700956D0B9F1400F65D058D8B9F1200F63
:1017B0005ED0B9F1300F42D146F0200644E0284611
:1017C000FFF736FF7BE717F4006F02D046F4804640
:1017D00075E72846FFF72FFF71E72846FFF729FF37
:1017E0007EE717F4002F02D046F4803678E72846CB
:1017F000FFF722FF74E72B680822DA602846FFF71C
:101800001DFF7EE72846FFF718FF82E72B680822B6
:101810001A612846FFF713FF8CE7284601F02EF8DF
:1018200090E72B6810225A602846FFF709FF8FE7E0
:101830002B6808225A602846FFF703FF8EE7B9F1AC
:10184000100F01D146F008062A68936923F070034F
:1018500093612B6804225A609EB9BDE8F88FB9F1F4
:10186000500F0BD0B9F1600FEED146F48076EBE764
:1018700046F01006E8E746F04006E5E746F0800649
:10188000E2E76B6A1E436E622846FFF7DBFEE4E781
:10189000002800F0E08170B582B00446036813F0C0
:1018A000010F3BD09F4B9B6803F00C03042B2CD003
:1018B0009C4B9B6803F00C03082B21D06368B3F5A5
:1018C000803F4FD0B3F5A02F52D0964B1A6822F428
:1018D00080321A601A6822F480221A606368002B32
:1018E00050D000F0C5FE05468E4B1B6813F4003F38
:1018F00014D100F0BDFE401B6428F5D90320B1E1EE
:10190000884B5B6813F4800FD8D0864B1B6813F4A8
:10191000003F03D06368002B00F09F81236813F021
:10192000020F54D07F4B9B6813F00C0F3ED07D4BC1
:101930009B6803F00C03082B33D0E368002B68D0BE
:10194000794B01221A6000F093FE0546754B1B6827
:1019500013F0020F54D100F08BFE401B0228F5D982
:1019600003207FE16F4A136843F480331360B5E7C7
:101970006C4B1A6842F480221A601A6842F4803272
:101980001A60ABE700F074FE0546664B1B6813F463
:10199000003FC3D000F06CFE401B6428F5D9032043
:1019A00060E1604B5B6813F4800FC6D15D4B1B6830
:1019B00013F0020F03D0E368012B40F05081594A25
:1019C000136823F0F803216943EAC1031360236815
:1019D00013F0080F42D063696BB3534B0122C3F875
:1019E000802E00F045FE05464E4B5B6F13F0020F54
:1019F00034D100F03DFE401B0228F5D9032031E12F
:101A0000484A136823F0F803216943EAC1031360CD
:101A1000DDE7454B00221A6000F02AFE0546414BE7
:101A20001B6813F0020FD2D000F022FE401B0228E8
:101A3000F5D9032016E13C4B0022C3F8802E00F0BC
:101A400017FE0546374B5B6F13F0020F06D000F010
:101A50000FFE401B0228F5D9032003E1236813F091
:101A6000040F77D02F4B1B6C13F0805F33D1002312
:101A700001932C4B1A6C42F080521A641B6C03F0D9
:101A800080530193019B0125284B1B6813F4807F31
:101A900023D0A368012B34D0052B38D0214B1A6FEB
:101AA00022F001021A671A6F22F004021A67A36873
:101AB000002B3DD000F0DCFD06461A4B1B6F13F0E7
:101AC000020F46D100F0D4FD801B41F288339842CA
:101AD000F3D90320C6E00025D6E7144A136843F47F
:101AE0008073136000F0C4FD0646104B1B6813F4AE
:101AF000807FCED100F0BCFD801B0228F5D90320E9
:101B0000B0E0084A136F43F001031367CFE7054BBA
:101B10001A6F42F004021A671A6F42F001021A6744
:101B2000C5E700BF00380240000047420070004097
:101B300000F09EFD0646524B1B6F13F0020F08D0BB
:101B400000F096FD801B41F288339842F3D90320C0
:101B500088E0EDB9A369002B00F08380484A9268C1
:101B600002F00C02082A51D0022B17D0454B00225C
:101B70001A6600F07DFD0446414B1B6813F0007FA0
:101B800042D000F075FD001B0228F5D9032069E062
:101B90003B4A136C23F080531364DBE7394B00227C
:101BA0001A6600F065FD0546354B1B6813F0007F93
:101BB00006D000F05DFD401B0228F5D9032051E05E
:101BC000E369226A1343626A43EA8213A26A5208F3
:101BD000013A43EA0243E26A43EA0263284A536055
:101BE000284B01221A6600F043FD0446244B1B6873
:101BF00013F0007F06D100F03BFD001B0228F5D951
:101C000003202FE000202DE000202BE0012B2BD023
:101C10001B4B5B6803F48001E269914226D103F01B
:101C20003F02216A8A4223D1616A47F6C0721A4094
:101C3000B2EB811F1ED103F44031A26A5208013A6F
:101C4000B1EB024F18D103F07063E26AB3EB026F9D
:101C500014D1002006E001207047012002E001209D
:101C600000E0002002B070BD0120FBE70120F9E791
:101C70000120F7E70120F5E70120F3E70120F1E774
:101C8000003802400000474208B5254B9B6803F02E
:101C90000C03042B3FD0082B3FD1214B5A6802F094
:101CA0003F025B6813F4800F12D01D4B5968C1F3DB
:101CB00088111C480023A1FB0001FEF7FFFE184B12
:101CC0005B68C3F3014301335B00B0FBF3F025E035
:101CD000134B5968C1F3881C4FEA4C11B1EB0C004F
:101CE0006EEB0E0E4FEA8E1343EA90638101091AE0
:101CF00063EB0E03DB0043EA5173C90011EB0C0CDC
:101D000043F10003990200234FEA8C2041EA9C51E1
:101D1000FEF7D4FED3E7034800E0034808BD00BF48
:101D200000380240001BB7000024F400002800F037
:101D30009B8070B50D4604464F4B1B6803F00703AC
:101D40008B4208D2CBB24C4A1370136803F00703DE
:101D50008B4240F08B80236813F0020F17D013F0F2
:101D6000040F04D0454A936843F4E053936023681A
:101D700013F0080F04D0414A936843F46043936022
:101D80003E4A936823F0F003A1680B4393602368F5
:101D900013F0010F32D06368012B21D09A1E012A63
:101DA00025D9364A126812F0020F61D033498A6889
:101DB00022F0030213438B6000F05AFC06462F4BBF
:101DC0009B6803F00C036268B3EB820F16D000F03F
:101DD0004FFC801B41F288339842F0D9032042E047
:101DE000264A126812F4003FE0D101203BE0234A6A
:101DF000126812F0007FD9D1012034E01E4B1B681D
:101E000003F00703AB4207D9EAB21B4B1A701B68F9
:101E100003F00703AB422DD1236813F0040F06D063
:101E2000164A936823F4E053E1680B4393602368F8
:101E300013F0080F07D0114A936823F46043216917
:101E400043EAC1039360FFF71FFF0C4B9B68C3F38A
:101E500003130B4AD35CD8400A4B18600A4B18682E
:101E600000F0BAFB002070BD012070470120FAE7A6
:101E70000120F8E70120F6E7003C0240003802406C
:101E8000504700080800002004000020014B18689B
:101E9000704700BF0800002008B5FFF7F7FF044BAC
:101EA0009B68C3F38223034AD35CD84008BD00BFBC
:101EB000003802406047000808B5FFF7E7FF044B11
:101EC0009B68C3F34233034AD35CD84008BD00BFCC
:101ED000003802406047000800230F2B00F2E48026
:101EE00070B582B060E085685E000324B44025EAE6
:101EF0000405CC68B4402C438460456825EA02059B
:101F00004C68C4F300129A402A4342605AE0DC084D
:101F1000083450F8246003F0070295000F22AA400D
:101F200026EA020E0A69AA4042EA0E0240F824207C
:101F30005CE0072200E0002202FA0EF22A4302349B
:101F40005A4D45F824205A4A94686FEA0C0224EA54
:101F50000C054E6816F4801F01D04CEA0405544C61
:101F6000A560E46802EA04054E6816F4001F01D07B
:101F70004CEA04054E4CE560646802EA04054E68CC
:101F800016F4003F01D04CEA0405494C6560246812
:101F900022404D6815F4803F01D04CEA0402444CC5
:101FA000226001330F2B7DD801229A400C6804EA8D
:101FB000020C32EA0404F4D14C6804F00304013C3E
:101FC000012C90D94A6802F00302032A09D0C468A0
:101FD0005D000322AA4024EA02048A68AA40224340
:101FE000C2604A6802F00302022A90D004684FEAF5
:101FF000430E032202FA0EF224EA02044A6802F0B7
:10200000030202FA0EF2224302604A6812F4403FD1
:10201000C7D000220192274A546C44F4804454648F
:10202000526C02F480420192019A9C08A51C1F4A3E
:1020300052F8255003F003024FEA820E0F2202FAF3
:102040000EF225EA02051C4A90423FF474AF02F5F5
:10205000806290421AD002F58062904218D002F558
:102060008062904216D002F58062904214D002F550
:102070008062904212D002F58062904210D002F548
:10208000806290423FF455AF082255E7012253E7A2
:10209000022251E703224FE704224DE705224BE7D6
:1020A000062249E702B070BD704700BF003801400A
:1020B000003C014000380240000002400AB181614A
:1020C000704709048161704710B40368D9B21039B0
:1020D0000C4AA2FB014212090B4CA25CC2655F29AB
:1020E00009D923F47F7323F0030304338365806DE0
:1020F0005DF8044B704723F47F7323F0030383657B
:10210000F5E700BFABAAAAAA48470008836A82691C
:1021100092B9012B0AD0022B02D00BB100207047DC
:10212000C36A13F0807F28D100207047C36AB3F1DF
:10213000C07F24D000207047B2F5005F09D0022B89
:1021400025D9032B25D1C36A13F0807F23D100202A
:102150007047032B03D8DFE803F01404140A0020AF
:102160007047C36A13F0807F0DD100207047C36AA7
:10217000B3F1C07F09D000207047012070470120D3
:1021800070470120704701207047012070470120EF
:1021900070470020704701207047000070B504466A
:1021A00000F066FA002C5BD00546022384F8353037
:1021B000002384F834302268136823F0010313608D
:1021C00023681A6812F0010F0AD000F051FA431B7D
:1021D000052BF5D920236365032084F8350070BDF5
:1021E0001A68204810406168A2680A43E1680A43FF
:1021F00021690A4361690A43A1690A43E1690A4303
:10220000216A0A430243616A04291ED01A602668C3
:10221000756925F00705636A1D43042B07D1A36A7E
:102220001D43E36A1BB12046FFF770FF90B975614B
:102230002046FFF749FFE26D3F2393408360002073
:102240006065012384F83530C9E7E16A206B0143FA
:102250000A43DBE740236365012084F83500BEE7CD
:102260000120BCE73F8010F070B50446866D00F099
:10227000FFF994F83530DBB2022B06D0802363657A
:10228000002384F83430012070BD054622681368AD
:1022900023F0160313602268536923F0800353610F
:1022A000236CE3B12268136823F0080313602268EB
:1022B000136823F00103136023681B6813F0010FF8
:1022C00011D000F0D5F9431B052BF5D92023636508
:1022D000032084F83500002384F83430D4E7A36C5D
:1022E000002BDFD1E3E7E26D3F239340B36001238E
:1022F00084F83530002084F83400C5E790F8353094
:10230000DBB2022B03D080234365012070470523F5
:1023100080F835300268136823F001031360002051
:1023200070470000F0B583B0044600230193724B60
:102330001D68724BA3FB0535AD0A876D3E68C26D03
:1023400008239340334210D003681A6812F0040F38
:102350000BD01A6822F004021A60C26D0823934061
:10236000BB60436D43F001034365E26D012393407D
:10237000334209D02268526912F0800F04D0BB604A
:10238000636D43F002036365E26D042393403342BF
:1023900009D02268126812F0020F04D0BB60636D8E
:1023A00043F004036365E26D10239340334224D06D
:1023B0002268126812F0080F1FD0BB6023681A68E9
:1023C00012F4802F0DD01B6813F4002F04D1236C5E
:1023D0009BB12046984710E0A36C73B12046984704
:1023E0000BE01A6812F4807F03D11A6822F0080209
:1023F0001A60236C0BB120469847E26D202393406E
:10240000334255D02268126812F0100F50D0BB60D2
:1024100094F83530DBB2052B0ED023681A6812F41D
:10242000802F33D01B6813F4002F2AD1636C002B4C
:102430003ED0204698473BE02268136823F01603FD
:1024400013602268536923F080035361236CA3B1A6
:102450002268136823F008031360E26D3F23934062
:10246000BB60012384F83530002384F83430236DB9
:10247000002B3FD0204698473CE0A36C002BE7D1CF
:10248000EBE7E36BA3B12046984711E01A6812F41A
:10249000807F09D11A6822F010021A60012384F8A3
:1024A0003530002384F83430E36B0BB12046984775
:1024B000636DFBB1636D13F0010F17D0052384F832
:1024C00035302268136823F001031360019B013348
:1024D0000193AB4204D823681B6813F0010FF5D1B8
:1024E000012384F83530002384F83430E36C0BB1D9
:1024F0002046984703B0F0BD08000020B5814E1B70
:10250000074AD36823F4E0631B041B0C000200F4A9
:10251000E060034343F0BF6343F40033D36070478C
:1025200000ED00E000B5194BDB68C3F30223C3F1F3
:10253000070CBCF1040F28BF4FF0040C03F1040E8C
:10254000BEF1060F18D9033B4FF0FF3E0EFA0CFC0C
:1025500021EA0C0199400EFA03F322EA030319431E
:1025600000280BDB0901C9B200F1604000F56140B1
:1025700080F800135DF804FB0023E5E700F00F008E
:102580000901C9B2024B1954F4E700BF00ED00E0A5
:1025900014ED00E0002807DB00F01F0240090123D2
:1025A0009340024A42F82030704700BF00E100E04B
:1025B0000138B0F1807F0BD24FF0E0235861054A1B
:1025C000F02182F823100020986107221A617047D9
:1025D0000120704700ED00E010B504460E4B18785E
:1025E0004FF47A73B3FBF0F30C4A1068B0FBF3F0CE
:1025F000FFF7DEFF68B90F2C01D901200AE00022A5
:1026000021464FF0FF30FFF78DFF054B1C60002087
:1026100000E0012010BD00BF0000002008000020E5
:102620000400002008B50B4B1A6842F400721A60CF
:102630001A6842F480621A601A6842F480721A6062
:102640000320FFF75DFF0F20FFF7C6FFFEF7DCFD5D
:10265000002008BD003C0240034A1168034B1B7870
:102660000B441360704700BFBC0000200000002036
:10267000014B1868704700BFBC000020034AD2F825
:10268000883043F47003C2F88830704700ED00E0F2
:1026900031EE607AB4EEC01AF1EE10FA06D4F4EE20
:1026A000C00AF1EE10FA14DCB0EE401A71EE600AC6
:1026B000012303FA00F0431E01EE103AB8EEC11AEE
:1026C00020EE811AC1EE077AFCEEE77A17EE900A47
:1026D0007047B0EE601AE9E701608272704700004F
:1026E00000B583B00246094908230B6104238B60BF
:1026F0000023CB60D0F806304B6052F80B0B01ABD7
:10270000FEF772FE03B05DF804FB00BFC0000020BE
:1027100010B52DED048B0446F0EE609AB0EE419AB0
:10272000F0EE618AB0EE428A437A012262F304033A
:102730004372837A83711020B2EE081AFAEE080A07
:10274000FFF7A6FFA4F80700637A6FF347136372DD
:102750001020B2EE091AFAEE090AB0EE690AFFF784
:1027600097FF030AE37220731020B3EE0E1AFBEEFC
:102770000E0AB0EE490AFFF78BFF030A6373A073DA
:102780009FED0F9A10209FED0F1AF0EE490AB0EE60
:10279000680AFFF77DFF030AE37320741020B1EE8F
:1027A000041AF0EE490AB0EE480AFFF771FF030A77
:1027B0006374A0742046FFF793FFBDEC048B10BD3B
:1027C000000000000000FA4308B5437A032262F3D8
:1027D00004034372837A8371094B1B78A0F8073096
:1027E000437A6FF347134372002304E0C2180021B9
:1027F000D1720133DBB2072BF8D9FFF771FF08BDA7
:102800000C00002008B5B0EE401AB0EE602A9FED33
:10281000040AF0EE401AF0EE400AFFF779FF08BD17
:102820000000000010B50446FEF7B0FD22685369B1
:1028300043F0020353612268536943F0100353616C
:1028400010BD000038B504460B4D00F001024FF4F6
:1028500080612846FFF732FCC4F340024FF4006168
:102860002846FFF72BFCC4F380024FF48051284622
:10287000FFF724FC38BD00BF001C024000B589B042
:102880000DF1030301AA0121FEF72CFE9DF80300C0
:10289000FFF7D8FF09B05DF804FB00286CD00346B1
:1028A000002969D030B50478427844EA0224C4F3A0
:1028B0000A040C8090F801E082784FEADE0E4EEABE
:1028C000421ECEF30A0EA1F802E08278C078920987
:1028D00042EA8002187942EA8022C2F30A028A8020
:1028E00018795D79400840EAC510C0F30A00C88035
:1028F00093F805C0CCF3011C81F80AC093F805C019
:102900004FEA9C1C81F80BC093F806C0DD794CEAB5
:10291000052CA1F80CC093F808C05D7A4CEA052C90
:10292000A1F80EC093F80AC0DD7A4CEA052CA1F894
:1029300010C01D7B8D745D7BCD7493F80EC0DD7B64
:102940004CEA052CA1F814C093F810C05B7C4CEA4B
:1029500003231BB20B81A4F580640C80AEF5806E5E
:10296000A1F802E0A2F580628A80A0F58060C880AC
:10297000A3F580630B8130BD7047000008B50348A4
:102980002422811800F07AF808BD00BFF000002072
:1029900000487047D800002000B583B02F4B1B685B
:1029A0001A6812F0200F09D0002200921A680092D3
:1029B0005B680093009B03B05DF804FB284A126833
:1029C00012F0100FF7D0002201921A6801925B6892
:1029D0000193019B234B1B681A6812F4002F1DD131
:1029E0001A6822F001021A601E4802685368C3F197
:1029F00024039BB21C490B8024215160116841F4CF
:102A00000021116001680A6842F001020A60122B7D
:102A1000D1D116491648FFF740FFCCE71A6822F0DB
:102A200001021A600F4908684368C3F124030E4A83
:102A30001380242343600F48836A23F400238362B6
:102A400009680B6843F001030B601388122BB2D1A5
:102A500006490948FFF721FFADE700BF68060020DF
:102A600000480040C405002038010020D8000020A4
:102A7000F0000020006002401401002010B4164B4A
:102A80001B685C6944F040045C61DC6844F010043D
:102A9000DC60124B1C68236823F00103236003E011
:102AA0001C6824F001041C600C4B1B681C6814F0AB
:102AB000010FF5D10A4C9C60D86019615A601A6800
:102AC00042F480221A60054B1A68136843F0010330
:102AD00013605DF8044B704768060020C4050020B1
:102AE0000448004000B583B071B9094B00221A7048
:102AF000074A50700A23009302237821054801F009
:102B00006FF803B05DF804FB014B40221A70EFE749
:102B1000C0050020AC06002008B50021AE20FFF75C
:102B2000E1FF00212020FFF7DDFF00211020FFF74B
:102B3000D9FF0021B020FFF7D5FF0021C820FFF703
:102B4000D1FF00210846FFF7CDFF00211020FFF73D
:102B5000C9FF00214020FFF7C5FF00218120FFF7BA
:102B6000C1FF0021FF20FFF7BDFF0021A120FFF7DB
:102B7000B9FF0021A620FFF7B5FF0021A820FFF72D
:102B8000B1FF00213F20FFF7ADFF0021A420FFF798
:102B9000A9FF0021D320FFF7A5FF00210846FFF77A
:102BA000A1FF0021D520FFF79DFF0021F020FFF7B6
:102BB00099FF0021D920FFF795FF00212220FFF780
:102BC00091FF0021DA20FFF78DFF00211220FFF78F
:102BD00089FF0021DB20FFF785FF00212020FFF780
:102BE00081FF00218D20FFF77DFF00211420FFF7DA
:102BF00079FF0021AF20FFF775FF08BD02460020D6
:102C000022E0144901EBC3014FF0FF0C01F800C0B2
:102C10000133DBB213F0800F14D1012AF1D03AB99D
:102C20000C4901EBC3014FF0000C01F800C0EFE7C5
:102C3000084901EBC30111F800C06FEA0C0C01F860
:102C400000C0E5E70130C0B2072801D80023E1E762
:102C5000704700BFBC01002010B50446A1F1500030
:102C60000021C0B2FFF73EFF2009002140F0100014
:102C7000FFF738FF002104F00F00FFF733FF10BD0E
:102C8000002821DB00291FDB3F291DDC0B46002922
:102C90001BDBC3F3C703D1F1000C01F007010CF0FB
:102CA000070C58BFCCF10001C9B2012A0FD0022A8B
:102CB00019D04FF0010C0CFA01FC114A02EBC000D4
:102CC000C15C21EA0C01C1547047CB1DE1E74FF014
:102CD000010C0CFA01FC0A4A02EBC000C15C41EA9B
:102CE0000C01C15470474FF0010C0CFA01FC044A6E
:102CF00002EBC000C15C81EA0C01C154704700BF07
:102D0000BC0100202DE9F04701EB41014F00FFB26B
:102D100000EB40004FEA80085FFA88F8203A5FFA3B
:102D200082FA44464FF0000920E0002261B278B2F6
:102D3000FFF7A6FF6D00EDB20134E4B2A4EB080387
:102D40000C2B0CD00136F6B2072E0BD815F0800FE5
:102D5000EBD0012261B278B2FFF792FFEAE70137C8
:102D6000FFB2444609F101095FFA89F9B9F10B0F85
:102D700008D80AEB4A03044A02EB830313F809500C
:102D80000026E1E7BDE8F08768470008F8B5064689
:102D90000C461746002501E00135EDB27A5D5AB1C7
:102DA00021463046FFF7AEFF0134E4B2142CF3D9CC
:102DB0000136F6B20024EFE7F8BD000004281CD865
:102DC0000CB470B504460D46142903D9BDE8704013
:102DD00002B0704705AA094B1A60094E04993046A3
:102DE00001F026F8C5F11503DBB20022F254324699
:102DF00029462046FFF7CAFFE8E77047BC050020D8
:102E00003C01002038B500250DE00B4B03EBC4035B
:102E10000121585DFFF766FE0134E4B214F0800F23
:102E2000F3D00135EDB2072D05D829460020FFF774
:102E300013FF0024F2E738BDBC01002008B50020D4
:102E4000FFF7DCFEFFF7DEFF08BD0246012002E0CF
:102E500002FB00F019464B1E0029F9D17047000013
:102E60002DE9F843804689461E46171E04DB2B22B7
:102E7000FFF748FF00241FE02D22FFF743FF7F42AA
:102E8000F8E704EB0905EDB2311B01390A20FFF721
:102E9000DCFFB7FBF0F00A4AA2FB0032D20802EBDB
:102EA0008202A0EB42023032691CD2B2C9B2404663
:102EB000FFF728FF0134E4B2B442E2D3BDE8F8835F
:102EC000CDCCCCCC08B50A480A4B03604FF4FA339A
:102ED000436000238360C36003610C22426183610D
:102EE000C36100F0B7F900B908BDFDF769FFFBE762
:102EF000240600200010014008B50B480B4B03606E
:102F00000B4B436000238360C3604FF48062026117
:102F10000C2242618361C36100F09CF900B908BDD5
:102F2000FDF74EFFFBE700BF6806002000480040A9
:102F3000A0860100F0B58BB000230593069307939C
:102F4000089309930368484A934205D00446474AC8
:102F5000934241D00BB0F0BD00240094444B5A6C16
:102F600042F010025A645A6C02F010020092009A69
:102F700001941A6B42F002021A631A6B02F0020209
:102F80000192019A02941A6B42F001021A631B6BC0
:102F900003F001030293029B802305930227069707
:102FA000032608960725099505A93248FEF794FFE0
:102FB0004FF400730593069707940896099505A9A1
:102FC0002D48FEF789FF224621462520FFF7AAFA61
:102FD0002520FFF7DFFABDE700250395244B1A6C87
:102FE00042F480221A641A6C02F480220392039A3B
:102FF00004951A6B42F004021A631B6B03F004037E
:103000000493049B4FF44063059302230693032328
:1030100008930723099305A91848FEF75DFF184890
:10302000184B03604FF0006343608560C5604FF448
:103030008063036145618561C5614FF4403303627C
:103040004562FFF7ABF858B90D4BA3639C630022B0
:1030500011462720FFF766FA2720FFF79BFA79E74A
:10306000FDF7AEFEF0E700BF001001400048004051
:103070000038024000040240000002400008024004
:10308000C405002028600240026802F10C0353E8E6
:10309000003F23F490730C3242E800310029F3D151
:1030A000026802F1140353E8003F23F001031432D5
:1030B00042E800310029F3D1036B012B05D0202316
:1030C00080F83E30002303637047026802F10C036E
:1030D00053E8003F23F010030C3242E8003100298E
:1030E000F3D1ECE790F83D30DBB2212B01D0022088
:1030F00070478368B3F5805F17D0036A5A1C026279
:103100001A7803685A60C38C9BB2013B9BB2C3849C
:103110004BB90268D36823F08003D3600268D36898
:1031200043F04003D360002070470369002BE4D1D3
:10313000036A1B880268C3F308035360036A0233FF
:103140000362E0E738B504460268136923F440538C
:10315000C1680B43136183680269134342691343D7
:10316000C2691A430168CB6823F4164323F00C03A9
:103170001343CB600268536923F4407381690B43A6
:1031800053610368314A934206D002F5806293424C
:1031900002D0FEF781FE01E0FEF78EFEE369B3F593
:1031A000004F29D00021031849411B1841F10001AB
:1031B000C90041EA5371DB00181863684FEA8302C3
:1031C0004FEA937341F10001FDF778FC204DA5FB18
:1031D00000325109642303FB11031B013233A5FBA9
:1031E00003235B0903F0F00202EB011203F00F036B
:1031F000216813448B6038BD0023021843EB0301A0
:10320000121841F10001C90041EA5271D2001018B0
:1032100041F10001626892185B41FDF74FFC0C4DD3
:10322000A5FB00325109642303FB1103DB00323399
:10323000A5FB03235B095A0002F4F87202EB0112AA
:1032400003F00703216813448B60D4E700100140AA
:103250001F85EB5158B310B5044690F83D300BB3C1
:10326000242384F83D302268D36823F40053D360CC
:103270002046FFF767FF2268136923F49043136128
:103280002268536923F02A0353612268D36843F408
:103290000053D36000202064202384F83D3084F85C
:1032A0003E3010BD80F83C30FFF744FED8E70120E7
:1032B000704790F83D30DBB2202B19D1D1B1DAB193
:1032C00090F83C30012B19D0012380F83C3001628A
:1032D0008284C28400230364212280F83D2080F888
:1032E0003C300168CA6842F08002CA6018467047E4
:1032F000022070470120704701207047022070476C
:10330000704708B50168CA6822F04002CA602022EE
:1033100080F83D20FFF7F4FF002008BD704770479C
:1033200008B5806B0023C385C384FFF7F8FF08BD91
:10333000704790F83E30DBB2222B67D18368B3F53B
:10334000805F4DD0826AB3F5805F04D0002B54D1EA
:103350000369002B51D103685B681370836A0133E2
:103360008362C38D9BB2013B9BB2C385002B4FD1BF
:1033700000B583B00268D36823F02003D3600268ED
:10338000D36823F48073D3600268536923F0010388
:103390005361202380F83E30036B012B33D100238F
:1033A0000363026802F10C0353E8003F23F01003AB
:1033B0000C3242E800310029F3D103681A6812F098
:1033C000100F06D0002201921A6801925B680193E7
:1033D000019B818DFFF7ACFF002003B05DF804FB7B
:1033E0000269002AAED1826A03685B68C3F30803EE
:1033F0001380836A02338362B3E703685B6803F078
:103400007F031370AAE7FFF789FFE5E70220704703
:103410000020704730B583B0044602681368D06856
:10342000516913F00F0505D113F0200F02D010F0F1
:10343000200F19D12DB111F0010119D110F4907F95
:1034400016D1216B01297DD013F0800F03D010F02D
:10345000800F40F0158113F0400F03D010F0400FA3
:1034600040F0128103B030BD2046FFF762FFF9E75C
:1034700013F0010F06D010F4807F03D0226C42F0CD
:103480000102226413F0040F04D019B1226C42F03F
:103490000202226413F0020F04D019B1226C42F030
:1034A0000402226413F0080F07D010F0200F00D19F
:1034B00019B1226C42F008022264226C002AD1D099
:1034C00013F0200F02D010F0200F29D123685B6980
:1034D00003F04003226C12F0080F00D163B32046C2
:1034E000FFF7D2FD23685B6913F0400F20D02268FC
:1034F00002F1140353E8003F23F04003143242E882
:1035000000310029F3D1A36B73B1614A1A65A06B36
:10351000FEF7F4FE0028A5D0A06B036D9847A1E745
:103520002046FFF706FFD1E72046FFF7F8FE99E7B0
:103530002046FFF7F4FE95E72046FFF7F0FE002354
:1035400023648FE713F0100F3FF47EAF10F0100FDD
:103550003FF47AAF002301931368019353680193FA
:10356000019B536913F0400F50D0A26B13685B6846
:103570009BB2002B3FF476AFA18D99427FF672AFDC
:10358000E385D369B3F5807F37D0226802F10C035D
:1035900053E8003F23F480730C3242E800310029E5
:1035A000F3D1226802F1140353E8003F23F0010332
:1035B000143242E800310029F3D1226802F11403E9
:1035C00053E8003F23F04003143242E80031002961
:1035D000F3D1202384F83E3000232363226802F1D4
:1035E0000C0353E8003F23F010030C3242E8003193
:1035F0000029F3D1A06BFEF737FEA18DE38D9BB2BE
:10360000C91A89B22046FFF793FE2BE7A18DE38DFF
:103610009BB2C91A89B2E38D9BB2002B3FF422AF53
:1036200000293FF41FAF226802F10C0353E8003F6A
:1036300023F490730C3242E800300028F3D1226862
:1036400002F1140353E8003F23F00103143242E86F
:1036500000300028F3D1202384F83E300023236378
:10366000226802F10C0353E8003F23F010030C32F0
:1036700042E800300028F3D12046FFF759FEF1E67A
:103680002046FFF72FFDEDE62046FFF73AFEE9E67C
:103690002133000800B583B000210191094B1A6B5A
:1036A00042F400121A631B6B03F400130193019B95
:1036B0000A460C20FEF736FF0C20FEF76BFF03B026
:1036C0005DF804FB0038024008B50B480B4B036063
:1036D0000B4B436000238360C3604FF48042026160
:1036E00043618361C361036200F09CF900B908BDC6
:1036F000FDF766FBFBE700BFAC060020005800406A
:10370000801A060030B589B0002303930493059313
:10371000069307930268134B9A4201D009B030BD5B
:1037200000250195104C236B43F020032363236B8A
:1037300003F020030193019B0323039312220492BD
:1037400006930423079303A90848FEF7C5FB0295D7
:10375000236C43F480032364236C03F480030293FB
:10376000029BDBE700580040003802400014024092
:1037700003685A6912F4806F01D1002070476FF41A
:1037800080625A6100230363202280F83D2080F884
:103790003E30026C42F00402026480F83C300120AA
:1037A00070472DE9F04107460D4690461E4624E03D
:1037B000FEF75EFF069BC01AB04200D8EEB90023A8
:1037C0003B63202287F83D2087F83E303A6C42F078
:1037D00020023A6487F83C3001201EE03B689C6977
:1037E00025EA040C1FFA8CFCBCFA8CFC4FEA5C1C2A
:1037F000E04511D1B6F1FF3FDAD1C5F30743012B04
:10380000ECD13B685B6925EA030C1FFA8CFCBCFA1F
:103810008CFC4FEA5C1CEBE70020BDE8F0812DE951
:10382000F04105460E46174698463DE01A6842F4B8
:1038300000721A602B686FF480625A6100232B6358
:10384000202285F83D2085F83E302A6C42F00402A3
:103850002A6485F83C30012034E0FEF709FFA0EB34
:103860000800B84200D8FFB900232B63202285F856
:103870003D2085F83E302A6C42F020022A6485F80B
:103880003C3001201EE02B689C6926EA0404A4B2A7
:10389000003C18BF0124A4B12B685A6912F4806F50
:1038A000C4D1B7F1FF3FD8D1C6F30743012BEAD10A
:1038B0002B685C6926EA0404A4B2003C18BF01240A
:1038C000E9E70020BDE8F081F0B583B004460D467D
:1038D00016461F46C36A082B0DD0012B0BD013F5DB
:1038E000803F08D0036B122B0AD10268136843F49F
:1038F0008073136004E02268136843F480731360DC
:103900000097334600224FF001112046FFF749FF90
:1039100080B92369B3F5804F16D1236805F0FE0501
:103920001D613B46324613492046FFF778FFF8B940
:1039300003B0F0BD23681B6813F4807F02D04FF4FE
:10394000007323640320F3E7EB11226803F00603FE
:1039500043F0F00313613B46324607492046FFF728
:103960005EFF18B92368EDB21D61DAE70120DFE7D9
:103970000120DDE7020001000800010070B50446E7
:103980000D46164623685B6913F0800F1CD1204654
:10399000FFF7EEFED0B9B5F1FF3FF3D0FEF768FEBA
:1039A000801BA84201D8002DECD1002323632022E4
:1039B00084F83D2084F83E30226C42F020022264DC
:1039C00084F83C30012000E0002070BD0120FCE7BD
:1039D00070B504460D46164623685B6913F0040F64
:1039E0001CD12046FFF7C4FED0B9B5F1FF3FF3D09C
:1039F000FEF73EFE801BA84201D8002DECD100232B
:103A00002363202284F83D2084F83E30226C42F06B
:103A10002002226484F83C30012000E0002070BDC8
:103A20000120FCE7002800F0CC8070B5044690F837
:103A30003D30002B77D0242384F83D302268136872
:103A400023F0010313602268136843F400431360FA
:103A50002268136823F400431360FEF71DFA6268BE
:103A60005A4B9A4264D85A4B98428CBF0023012388
:103A7000002B40F0A8805749A1FB00318B0C256832
:103A80006A6822F03F0242EA91426A6021680A6A4B
:103A900022F03F0266684D4DAE424FD801331343CA
:103AA0000B622168CA6922F44F4222F0FF02666865
:103AB000464B9E424CD8431E7600B3FBF6F30133CF
:103AC00040F6FC70034278D0C3F30B031343CB6181
:103AD00021680B6823F0C003E269206A02431343A4
:103AE0000B6021688B6823F4034323F0FF032269F2
:103AF000E068024313438B602168CB6823F0FF0327
:103B00006269A06902431343CB602268136843F0E3
:103B10000103136000202064202384F83D302063DB
:103B200084F83E0070BD80F83C30FFF7EBFD82E783
:103B3000294B98428CBF0023012399E74FF49675D7
:103B400005FB03F3254DA5FB03539B090133A6E7B2
:103B5000A368BBB9451E06EB460CB5FBFCF5013569
:103B6000C5F30B05B5FA85F56D0945BBC3B9013839
:103B700006EB4603B0FBF3F30133C3F30B0343F44B
:103B80000043A3E7451E06EB860C0CEB8C0CB5FB43
:103B9000FCF50135C5F30B05B5FA85F56D09E4E7CC
:103BA000013806EB860303EB8303B0FBF3F3013329
:103BB000C3F30B0343F4404388E7042386E7012360
:103BC00084E7012070470120ACE700BFA086010018
:103BD0007F841E0083DE1B43FF083D00D34D62102F
:103BE0002DE9F04385B004460F46914698460C9E59
:103BF000FEF73EFD054694F83D00C0B2202804D0F3
:103C00000227384605B0BDE8F0830095192301224C
:103C10004F492046FFF7C5FD002840F0928094F8F8
:103C20003C30012B00F08F80012384F83C30236866
:103C30001A6812F0010F03D11A6842F001021A60EB
:103C40002268136823F400631360212384F83D3055
:103C5000102384F83E3000232364C4F82490A4F891
:103C60002A80638D23853B4BE3622B4632463946DF
:103C70002046FFF729FE0746002866D1002303935C
:103C800023685A6903929B690393039B11E0236C99
:103C9000042B01D00127B4E72268136843F40073B2
:103CA0001360F7E72A4631462046FFF791FE0028C9
:103CB0002ED1238D002B36D02A4631462046FFF7E1
:103CC0005DFE0028E3D1626A236812781A61606A97
:103CD000431C6362618D89B2013989B26185238D8C
:103CE000013B9BB223852268516911F0040FD9D0A2
:103CF000002BD7D043781361636A01336362638D0D
:103D00009BB2013B9BB26385238D013B2385C9E7B1
:103D1000236C042B01D0012773E72268136843F456
:103D200000731360F7E72268136843F400731360AD
:103D3000202384F83D30002384F83E3084F83C3062
:103D40005FE702275DE702275BE7012759E700BF2E
:103D5000020010000000FFFFDFF834D00D480E49CC
:103D60000E4A002302E0D458C4500433C4188C42D5
:103D7000F9D30B4A0B4C002301E013600432A2423A
:103D8000FBD3FEF77BFC00F011F8FDF76FF87047EE
:103D9000000002200000002074000020204C0008D9
:103DA0007400002014070020FEE7000070B50D4DE0
:103DB0000D4C641BA4100026A64209D10B4D0C4CDF
:103DC00000F09CFC641BA4100026A64205D170BD27
:103DD00055F8043B98470136EEE755F8043B984701
:103DE0000136F2E7184C0008184C0008184C00087F
:103DF0001C4C000802440346934200D1704703F86C
:103E0000011BF9E700B59BB0009104916FF00041F0
:103E10000591029105490391694600F06FF8009BF6
:103E200000221A701BB05DF804FB00BF0802FFFF00
:103E300013460A46014602480068FFF7E3BF00BF89
:103E4000100000202DE9F0478E689E4282460C4605
:103E500090461F4638D88A8912F4906F32D0256870
:103E60000969A5EB0109656905EB450505EBD57504
:103E700001334B446D109D4238BF1D46530531D56B
:103E8000294600F063FB064650B90C23CAF80030FF
:103E9000A38943F04003A3814FF0FF30BDE8F087D2
:103EA00021694A4600F0BEFAA38923F4906343F0E7
:103EB0008003A381266165614E44A5EB0905266058
:103EC000A5603E46BE4200D93E4620683246414685
:103ED00000F0B6FAA3689B1BA360236833442360F9
:103EE0000020DBE72A4600F0A5FB06460028E1D1CA
:103EF0002169504600F0BEFAC7E700002DE9F04FF7
:103F000098468B891B069DB007460D4614460ED574
:103F10000B6963B9402100F019FB2860286120B9C2
:103F20000C233B604FF0FF30D1E040236B61002356
:103F3000099320238DF82930CDF80C803023DFF849
:103F4000A8818DF82A304FF0010923469A4613F8CC
:103F5000012B0AB1252AF9D1BAEB040B0BD05B4631
:103F6000224629463846FFF76DFF013000F0AA804F
:103F7000099A5A4409929AF80030002B00F0A28066
:103F800000234FF0FF32CDE905230AF1010A049323
:103F900007938DF853301A935446052214F8011BE9
:103FA0005148FCF71DF9049AD8B9D00644BF202324
:103FB0008DF85330110744BF2B238DF853309AF8F6
:103FC00000302A2B15D0079A544600204FF00A0CD7
:103FD000214611F8013B303B092B4ED9B0B1079275
:103FE00014E0A0EB080309FA03F313430493A24679
:103FF000D2E7039B191D1B680391002BBBBF5B42DB
:1040000042F0020207930793B8BF049223782E2B45
:104010000CD163782A2B35D1039B1A1D1B680392A0
:10402000002BB8BF4FF0FF3302340593DFF8C8A070
:10403000217803225046FCF7D3F840B14023A0EB8F
:104040000A0003FA00F0049B03430134049314F8BC
:10405000011B26488DF828100622FCF7C1F800281D
:1040600038D0234B1BBB039B073323F007030833D4
:104070000393099B3344099367E70CFB02320C4618
:104080000120A5E700230134059319464FF00A0CDF
:10409000204610F8012B303A092A03D9002BC5D04D
:1040A0000591C3E70CFB012104460123F0E703ABB4
:1040B00000932A460F4B04A93846AFF30080421CF8
:1040C0000646D6D1AB895B063FF52CAF09981DB0EB
:1040D000BDE8F08F03AB00932A46064B04A938468F
:1040E00000F07AF8EBE700BFDC4B0008E64B000875
:1040F00000000000453E0008E24B00082DE9F047B3
:10410000164699468A680B69DDF820809342B8BF4D
:104110001346336091F8432007460C460AB1013339
:1041200033602368990642BF3368023333602568E1
:1041300015F0060506D104F1190AE36832689B1AE6
:10414000AB4226DC94F84320131E226818BF0123DB
:1041500092062BD404F1430249463846C047013049
:104160001ED02368E568326803F00603042B08BFFD
:10417000AD1AA36822690CBF25EAE57500259342B4
:10418000C4BF9B1AED1800261A34B5421AD100207C
:1041900008E00123524649463846C047013003D162
:1041A0004FF0FF30BDE8F0870135C6E7E1185A1C33
:1041B000302081F84300224494F8451082F84310DF
:1041C0000233C7E70123224649463846C04701303B
:1041D000E6D00136D9E700002DE9FF470F7E0C9DA0
:1041E000782F914680460C469A4601F1430207D843
:1041F000622F0AD8002F00F0D880582F00F0A3803B
:1042000004F1420584F842703AE0A7F16303152BEC
:10421000F6D801A151F823F0714200088542000848
:104220000142000801420008014200080142000862
:1042300085420008014200080142000801420008CE
:104240000142000891430008B5420008734300088A
:104250000142000801420008B3430008014200087F
:10426000B542000801420008014200087B430008F3
:104270002B681A1D1B682A6004F1420584F842303D
:104280000123A3E020682968060601F104030AD58A
:104290000E682B60002E03DA2D23764284F843301B
:1042A0005E480A2319E00E682B6010F0400F18BF1B
:1042B00036B2EFE72B682068191D2960010601D589
:1042C0001E6802E04606FBD51E8854486F2F0CBFBF
:1042D00008230A23002184F843106568A560002D97
:1042E000A2BF216821F0040121600EB9002D4DD03C
:1042F0001546B6FBF3F103FB1167C75D05F8017DB9
:104300003746BB420E46F4D9082B0BD12368DE0793
:1043100008D5236961689942DEBF302305F8013C66
:1043200005F1FF35521B2261CDF800A04B4603AAD0
:1043300021464046FFF7E2FE01304CD14FF0FF30FE
:1043400004B0BDE8F087354881F8457029682368D6
:1043500051F8046B29601D0614D5DF0744BF43F0F4
:10436000200323601EB9236823F020032360102359
:10437000B0E7236843F0200323607823284884F8BB
:104380004530E3E7590648BFB6B2E6E71546BBE756
:104390002B6826686169181D286035061B6801D5E1
:1043A000196002E07006FBD51980002323611546D1
:1043B000BAE72B681A1D2A601D686268002128462A
:1043C000FBF70EFF08B1401B6060636823610023A8
:1043D00084F84330A8E723692A4649464046D04737
:1043E0000130ABD023689B0713D4E068039B98424D
:1043F000B8BF1846A4E70123324649464046D04795
:1044000001309BD00135E36803995B1AAB42F2DCC3
:10441000EBE7002504F11906F5E700BFED4B0008B6
:10442000FE4B00080A44914200F1FF3300D170476F
:1044300010B511F8014B03F8014F9142F9D110BDAD
:10444000884210B501EB020402D98442234607D802
:10445000431EA14208D011F8012B03F8012FF8E701
:10446000024401468A4200D110BD13F8014D02F802
:10447000014DF7E737B5002944D051F8043C0190CD
:10448000002BA1F10404B8BFE41800F013F91E4A90
:104490000198136833B96360146003B0BDE830401D
:1044A00000F00EB9A34208D9256861198B4201BFFB
:1044B00019685B6849192160EDE71A465B680BB122
:1044C000A342FAD911685518A5420BD1246821449A
:1044D0005418A3421160E0D11C685B68536021440A
:1044E0001160DAE702D90C230360D6E72568611969
:1044F0008B4204BF19685B68636004BF491921607F
:104500005460CAE703B030BD0007002070B50E4EFE
:104510000C463168054611B900F0BCF83060214600
:10452000284600F0B7F8431C0AD0C41C24F003044A
:10453000A04207D0211A284600F0ACF8013001D182
:104540004FF0FF34204670BD040700202DE9F041F4
:10455000CD1C25F0030508350C2D38BF0C25002D8A
:10456000074601DBA94205D90C233B6000263046F3
:10457000BDE8F0812E4E00F09DF833681C4634BB38
:1045800029463846FFF7C2FF431C04464DD1346824
:104590002646002E40D123683146384604EB0308F6
:1045A00000F078F880453AD1216803356D1A25F07E
:1045B000030508350C2D38BF0C2529463846FFF772
:1045C000A5FF01302BD023682B4423600EE0226826
:1045D000521B1ED40B2A16D96119A342256018BF9D
:1045E0005960636808BF316062514B60384604F11E
:1045F0000B0600F065F826F00706231DF21AB6D068
:104600009B1BA350B3E76268A3420CBF32605A60A1
:10461000ECE723466468B2E734467668B9E70C23D2
:104620003B60384600F04CF8A1E72560DEE700BFAC
:10463000000700202DE9F041804614460E4621B9BE
:10464000BDE8F0411146FFF781BF2AB9FFF712FF1D
:1046500025462846BDE8F08100F038F88442074638
:1046600002D8B4EB500F12D821464046FFF76EFF38
:1046700005460028EDD0BC422246314628BF3A46C6
:10468000FFF7D0FE31464046FFF7F4FEE1E735463E
:10469000DFE7000038B5064D0023044608462B60CE
:1046A00000F01EF8431C02D12B6803B1236038BD13
:1046B00008070020014800F011B800BF0C070020D7
:1046C000014800F00CB800BF0C07002051F8043C72
:1046D000181F002BBCBF0B58C0187047704770479D
:1046E000044A05491368002B08BF0B4618441060A4
:1046F000184670471007002018070020F8B500BFC3
:10470000F8BC08BC9E467047F8B500BFF8BC08BCB2
:044710009E4670470A
:1047140023000000434830203D200000434831205E
:104724003D200000434832203D2000004348332010
:104734003D20000048656C6C6F20576F726C640AF2
:10474400000000000006101600061016000000000D
:10475400000000000102030406070809000000002D
:10476400010203040000000000000000000000003B
:10477400000000003F400000000000000000300086
:10478400400030004000000009000BC03D000BC099
:104794003D00090018C024407FE022403180000021
:1047A400180024C01B000D803240018003801C408F
:1047B40027401C80074000401000600000000000FB
:1047C400000000000000000000001F802040402086
:1047D4000000402020401F80000000000900060067
:1047E4001F80060009000000040004003F8004004C
:1047F4000400000000100060000000000000000041
:104804000400040004000400040000000000004050
:104814000000000000000000002001C00600380075
:10482400400000001F802040204020401F800000E6
:10483400000010403FC000400000000018C02140AC
:10484400224024401840000010802040244024408E
:104854001B80000002000D0011003FC00140000059
:104864003C80244024402440238000001F802440B6
:1048740024403440038000003000200027C038006A
:10488400200000001B802440244024401B800000A2
:104894001C0022C0224022401F80000000000000B3
:1048A4000840000000000000000000000460000058
:1048B40000000000000004000A00110020804040B5
:1048C4000900090009000900090000000000404037
:1048D400208011000A000400180020002340240056
:1048E400180000001F802040274029401F4000007E
:1048F400004007C039000F0001C0004020403FC005
:10490400244024401B8000001F8020402040204081
:104914003080000020403FC0204020401F80000025
:1049240020403FC024402E4030C0000020403FC003
:1049340024402E00300000000F0010802040224050
:104944003380020020403FC0040004003FC02040E8
:10495400204020403FC02040204000000060202034
:1049640020203FC02000200020403FC024400B00F6
:1049740030C0204020403FC020400040004000C0E4
:104984003FC03C0003C03C003FC0000020403FC08B
:104994000C4023003FC020001F80204020402040C6
:1049A4001F80000020403FC0244024001800000065
:1049B4001F802140214020E01FA0000020403FC074
:1049C4002440260019C0004018C02440244022403E
:1049D40031800000300020403FC020403000000003
:1049E40020003F80004000403F80200020003E0027
:1049F40001C0070038002000380007C03C0007C091
:104A040038000000204039C0060039C020400000B2
:104A14002000384007C0384020000000304021C04A
:104A24002640384020C00000000000007FE0402005
:104A340040200000000070000C00038000400000D3
:104A44000000402040207FE0000000000000200023
:104A540040002000000000000010001000100010B2
:104A640000100010000000004000000000000000E2
:104A7400000002800540054003C0004020003FC004
:104A8400044004400380000000000380044004400C
:104A94000640000000000380044024403FC0004062
:104AA400000003800540054003400000000004406E
:104AB4001FC0244024402000000002E0055005509F
:104AC4000650042020403FC00440040003C00040BE
:104AD4000000044027C00040000000000010001047
:104AE400041027E00000000020403FC00140070000
:104AF40004C00440204020403FC00040004000006B
:104B040007C0040007C0040003C00000044007C03D
:104B14000440040003C0004000000380044004403B
:104B240003800000041007F00450044003800000D8
:104B3400000003800440045007F00010044007C044
:104B44000240040004000000000006400540054047
:104B540004C00000000004001F8004400040000066
:104B6400040007800040044007C000400400070020
:104B740004C0018006000400060001C0070001C053
:104B840006000000044006C0010006C00440000006
:104B94000410071004E00180060004000000044033
:104BA40005C00640044000000000000004007BE053
:104BB40040200000000000000000FFF000000000A2
:104BC400000040207BE00400000000004000800062
:104BD4004000200020004000232D302B2000686C72
:104BE4004C0065666745464700303132333435360C
:104BF4003738394142434445460030313233343545
:0C4C040036373839616263646566000071
:084C1000DCBEFF7F0100000083
:044C1800B5010008DA
:044C1C0091010008FA
:104C200001000000100000000024F400010000005A
:104C30001400002000000000000000000000000040
:104C40000000000000000000000000000000000064
:104C50000000000000000000000000000000000054
:104C60000000000000000000000000000000000044
:104C70000000000000000000000000000000000034
:104C80000000000000000000000000000000000024
:044C90000000000020
:0400000508003D5959
:00000001FF
